:020000040800F2
:1000000000000220FD1C00084D1D00084D1D0008C9
:100010004D1D00084D1D00084D1D0008000000008A
:100020000000000000000000000000004D1D00085E
:100030004D1D0008000000004D1D00087310000851
:100040004D1D00084D1D00084D1D00084D1D0008E8
:100050004D1D00084D1D0008551B00085B1B0008C6
:10006000611B0008671B00086D1B00084D1D000880
:100070004D1D00084D1D00084D1D00084D1D0008B8
:100080004D1D00084D1D00084D1D00084D1D0008A8
:100090004D1D00084D1D00084D1D0008731B000874
:1000A000F52000082D200008092100085120000833
:1000B00065200008792000088D2000084D1D0008EB
:1000C0004D1D00084D1D00084D1D00084D1D000868
:1000D0004D1D0008BD190008D5190008ED190008CC
:1000E000891B0008F11200084D1D00081D210008A1
:1000F000DD20000831210008F12000084D1D000816
:100100004D1D00084D1D0008A12000084D1D0008D0
:10011000091A0008211A0008B5200008C9200008A3
:100120004D1D00084D1D00084D1D00084D1D000807
:100130004D1D00084D1D00084D1D00084D1D0008F7
:100140004D1D00084D1D00084D1D00084D1D0008E7
:100150004D1D00084D1D00084D1D0008391A0008EE
:100160004D1D00084D1D00084D1D00084D1D0008C7
:100170004D1D00084D1D00084D1D00080000000029
:080180004D1D00084D1D000893
:1001880053B94AB9002908BF00281CBF4FF0FF31F6
:100198004FF0FF3000F00CB8ADF1080C6DE904CE5B
:1001A80002F07AFADDF804E0DDE9022304B07047D2
:1001B800704700BF10B5054C237833B9044B13B111
:1001C8000448AFF300800123237010BD980000207D
:1001D80000000000002A000808B5034B1BB10349C2
:1001E8000348AFF3008008BD000000009C00002019
:1001F800002A000808B501210E2001F0A5FDBDE880
:10020800084001210D2001F09FBD08B501210E20F5
:1002180001F0F4FD00210D2001F0F0FD4FF4FA701B
:1002280001F010FE00210E2001F0E8FD0D20012153
:1002380001F0E4FDBDE808404FF4FA7001F002BE99
:1002480010B50A4C22681318EFF308818B4206D9BF
:10025800074B0C221A604FF0FF32104610BD0549BB
:100268000548091A8B42F3D22360F6E70000002004
:100278009C0300200000022000040000FEE70000AC
:10028800024B16221A604FF0FF3070479C03002083
:10029800012070477047000038B50E4A0E4B0546DE
:1002A80018784FF47A73B3FBF0F31068B0FBF3F0EF
:1002B80000F0A8F8044658B90F2D09D80246294677
:1002C8004FF0FF3000F04AF8044B20461D6038BD5F
:1002D8000120FCE730000020040000200800002076
:1002E80008B50B4B1A6842F400721A601A6842F497
:1002F80080621A601A6842F480721A60032000F063
:100308001BF80020FFF7C8FFFFF7C4FF002008BD57
:10031800003C0240034A044B11681B780B441360ED
:10032800704700BF9803002004000020014B1868A4
:10033800704700BF980300200749CA6822F4E062AA
:100348000302120403F4E063120C134343F0BF6387
:1003580043F40033CB60704700ED00E0164B30B536
:10036800DC68C4F30224C4F10705231D042D28BF4B
:100378000425062B4FF0FF338CBF033C002403FAFF
:1003880005F521EA0501A34022EA0302A14000285D
:1003980041EA0203ACBF00F16040084A4FEA031388
:1003A800B8BF00F00F00DBB2AABF00F561401354DC
:1003B80080F8003330BD00BF00ED00E014ED00E030
:1003C800002808DB4209012300F01F0003FA00F0AF
:1003D800014B43F82200704700E100E000280DDBE4
:1003E8004309012200F01F0002FA00F02033044AFA
:1003F80042F82300BFF34F8FBFF36F8F704700BFE2
:1004080000E100E00138B0F1807F0AD2064B074ACC
:100418005860F02182F823100020072298601A60A3
:1004280070470120704700BF10E000E000ED00E0D9
:10043800002809DB4309012200F01F0002FA00F03E
:100448006033024A42F82300704700BF00E100E031
:10045800704708B5FFF7FCFF08BD10B5044640B16A
:100468000223037101F0F0FA00202061607120710D
:1004780010BD0120FCE710B504680122236802FAC8
:1004880001F123EA010323600271002010BD90F8F6
:100498003530022B03D08023436501207047026862
:1004A800052380F83530136823F00103136000201A
:1004B80070470000044A5169014208B502D05061F2
:1004C80001F02EFB08BD00BF003C01402DE9F341BF
:1004D800044640B30368DD0710D4236898075ED448
:1004E80023681A0700F1A08023685B0700F1BE802B
:1004F800A069002840F01F8100202BE0A64B9A68D5
:1005080002F00C02042A07D09A6802F00C02082AAA
:100518000BD15A68510208D59F4B1B689A03DCD54A
:100528006368002BD9D1012014E06268B2F5803FDE
:1005380013D11A6842F480321A60FFF7F7FE964E1C
:10054800054633689B03C8D4FFF7F0FE401B6428B8
:10055800F7D9032002B0BDE8F0818F4DB2F5A02F86
:100568002B6807D143F480232B602B6843F4803336
:100578002B60E2E723F480332B602B6823F480237D
:100588002B60002AD9D1FFF7D1FE06462B689F03BE
:10059800A3D5FFF7CBFE801B6428F7D9D9E77E4B9C
:1005A8009A6812F00C0F07D09A6802F00C02082A19
:1005B80011D15B685E020ED4774B1A68950702D595
:1005C800E268012AAFD11A68216922F0F80242EAEA
:1005D800C1021A6084E7E268704BB2B101221A6066
:1005E800FFF7A4FE6C4D06462B68980707D52B68C5
:1005F800226923F0F80343EAC2032B6070E7FFF790
:1006080095FE801B0228EFD9A3E71A60FFF78EFE3C
:10061800614E0546336899077FF562AFFFF786FE9E
:10062800401B0228F6D994E762695D4B7AB1012232
:100638001A60FFF77BFE584E0546736F9F073FF51C
:1006480053AFFFF773FE401B0228F6D981E71A6003
:10065800FFF76CFE504E0546736F98077FF544AF61
:10066800FFF764FE401B0228F6D972E74A4B1A6C62
:1006780012F0805228D101921A6C42F080521A640A
:100688001B6C03F080530193019B0127454D2B6898
:10069800D9051BD5A368404D012B27D12B6F43F0FB
:1006A80001032B67FFF742FE3B4E054641F28838AF
:1006B800336F9B0739D5002F3FF41AAF364A136CB6
:1006C80023F08053136413E70027DFE72B6843F414
:1006D80080732B60FFF72AFE06462B68DA05D9D40B
:1006E800FFF724FE801B0228F7D932E7052B04D137
:1006F8002B6F43F004032B67D0E72A6F22F0010227
:100708002A672A6F22F004022A67002BCAD1FFF752
:100718000DFE41F2883806462B6F9807CBD5FFF7B8
:1007280005FE801B4045F7D913E7FFF7FFFD401B87
:100738004045BDD90DE7184DAB6803F00C03082BF5
:1007480047D0194E00230228336035D1FFF7EEFD5C
:1007580007462B68990129D4D4E907321343626A02
:1007680043EA8213E26A43EA0263A26A5208013A40
:1007780043EA02436B6001233360FFF7D7FD064D60
:1007880004462B689A013FF5B7AEFFF7CFFD001B73
:100798000228F6D9DDE600BF0038024000004742D3
:1007A800800E47420070004060004742FFF7BEFDE0
:1007B800C01B0228CDD9CCE6FFF7B8FD04462B684C
:1007C8009B017FF599AEFFF7B1FD001B0228F6D912
:1007D800BFE601283FF4BEAEAB68E26903F48001CE
:1007E80091427FF4A0AE216A03F03F028A427FF46F
:1007F8009AAE616A47F6C0721A408A427FF493AE95
:10080800A16A03F440328A427FF48DAEE26A03F0B3
:10081800706393423FF470AE85E600BF134908B594
:100828008B6803F00C03042B1CD0082B1CD14A68DE
:100838004B68496813F4800314BF0D480D48C1F391
:10084800881118BF002302F03F02A1FB0001FFF747
:1008580097FC064B5B68C3F3014301335B00B0FBB5
:10086800F3F008BD0248FCE70248FAE70038024006
:1008780000127A000024F4002DE9F0410D460446E8
:1008880010B90120BDE8F081444B1A6802F00F024C
:100898008A4228D3226897072DD4D00741D43F4BEA
:1008A8001A6802F00F02AA4266D8226851076CD46F
:1008B800130707D53A4A2169936823F4604343EA4A
:1008C800C1039360FFF7AAFF354B364A9B68C3F311
:1008D8000313D35CD840344B1860344B1868FFF7C7
:1008E800DBFC0020CEE7CAB21A701B6803F00F03C6
:1008F8008B42C6D1CEE72A4B12F0040F1EBF99686F
:1009080041F4E0519960160742BF996841F460418B
:1009180099602349A0688B6823F0F00303438B6038
:10092800BBE762681E4B012A1CD11B6813F4003F09
:10093800A7D01B4EB36823F003031343B360FFF73C
:10094800F5FC41F288380746B368626803F00C0387
:10095800B3EB820FA3D0FFF7E9FCC01B4045F3D9E6
:1009680003208FE7911E01291B6802D813F0007F2E
:10097800DEE713F0020FDBE7EAB21A701B6803F038
:100988000F03AB427FF47DAF8FE70549E0688B68C2
:1009980023F4E05303438B608AE700BF003C024026
:1009A80000380240BC2A000830000020080000205F
:1009B80003689A68D20410B504460AD5DB68D905DD
:1009C80007D500F085FC2268D368DBB263F4C073F6
:1009D800D36023689A6892040BD5DB689B0508D519
:1009E800204600F00FF82268D368DBB263F4207366
:1009F800D360034B4FF400325A610123637710BD73
:100A0800003C014070477047704703681A699107B6
:100A180010B504460ED5DA6892070BD56FF00202BE
:100A28001A61012202779B699B0777D001F0D0FBFE
:100A38000023237723681A69500710D5DA6851070D
:100A48000DD56FF004021A61022222779B6913F414
:100A5800407F204668D001F0BBFB00232377236842
:100A68001A6912070FD5DA6810070CD56FF008025B
:100A78001A6104222277DB69990720465AD001F0CF
:100A8800A7FB0023237723681A69D20610D5DA68F2
:100A9800D0060DD56FF010021A6108222277DB69A3
:100AA80013F4407F20464BD001F092FB00232377BC
:100AB80023681A69D10708D5DA68D20705D56FF017
:100AC80001021A61204601F057FB23681A691006D3
:100AD80008D5DA68110605D56FF080021A6120463C
:100AE80000F0B7F823681A69520608D5DA68500684
:100AF80005D56FF040021A612046FFF785FF23688D
:100B08001A69910622D5DA6892061FD56FF020027D
:100B180020461A61BDE8104000F09AB801F056FB73
:100B28002046FFF770FF83E701F050FB2046FFF7F0
:100B38006AFF92E701F04AFB2046FFF764FFA0E74F
:100B480001F044FB2046FFF75EFFAFE710BD000051
:100B5800304A0368904212D0B0F1804F0FD0A2F50E
:100B68007C4290420BD002F58062904207D002F599
:100B78008062904203D002F57842904219D14A68C7
:100B880023F070031343234A904229D0B0F1804FD9
:100B980026D0A2F57C42904222D002F58062904293
:100BA8001ED002F5806290421AD002F57842904237
:100BB80016D0194A904213D002F5806290420FD0A5
:100BC80002F5806290420BD0A2F59832904207D08D
:100BD80002F58062904203D002F58062904203D110
:100BE800CA6823F4407313434A6923F0800313430C
:100BF80003608B68C3620B688362064B984203D01C
:100C080003F58063984201D10B69036301234361B3
:100C1800704700BF000001400040014010B5044685
:100C2800A0B190F83D3003F0FF021BB980F83C20DA
:100C380000F0DCFD0223206884F83D30211DFFF719
:100C480087FF012384F83D30002010BD0120FCE718
:100C5800704770470368DA6822F49072DA605A695C
:100C680022F001025A61202380F83A30704790F848
:100C78003930202B18D1A9B1A2B190F83830012B06
:100C880012D0C28401628284016800232122C363D6
:100C980080F8383080F83920CA6842F08002CA608B
:100CA80018467047012070470220704790F83A3084
:100CB800202B20D1E9B1E2B190F83830012B1AD0BD
:100CC800C285828500232222C36380F83A20026805
:100CD80080F838308162D16841F48071D1605169FF
:100CE80041F001015161D16841F02001D1601846FD
:100CF8007047012070470220704710B590F83A30CD
:100D0800222B33D181680469836A0268B1F5805F58
:100D180023D15268ECB9C2F3080223F8022B83628C
:100D2800C48D013CA4B2C4858CB90368DA6822F08A
:100D38002002DA60DA6822F48072DA605A6922F0F6
:100D480001025A61202380F83A3000F0DFFD0020CC
:100D58000DE0D2B223F8012BE1E7591C52688162F9
:100D68000CB91A70DCE702F07F02FAE7022010BD26
:100D780003681A68D96870B516075D69044607D113
:100D880096065CD58D065AD5BDE87040FFF7B5BF0D
:100D980005F0010001F49075054350D0D60705D53C
:100DA800CD0542BFE36B43F00103E363530704D56A
:100DB80018B1E36B43F00203E363960704D518B157
:100DC800E36B43F00403E363150707D501F0200341
:100DD80003431EBFE36B43F00803E363E36B4BB3CA
:100DE800900604D5890602D52046FFF786FF2368BA
:100DF8005B69E56B03F0400305F008051D432046D9
:100E080019D0FFF727FF23685A6952060FD55A6988
:100E1800606B22F040025A6148B1264B0365FFF728
:100E280036FB38B1606BBDE87040036D184720464B
:100E380000F082FD70BD00F07FFDE563FAE716065D
:100E480028D50D0626D594F83920212AF2D1A16893
:100E5800226AB1F5805F18D11188C1F30801596081
:100E6800216981B902322262E28C013A92B2E284AB
:100E7800002ADFD1DA6822F08002DA60DA6842F00C
:100E88004002DA60D6E70132EDE7511C21621278A0
:100E98005A60E9E75006CDD54A06CBD5DA6822F084
:100EA8004002DA60202384F83930204600F031FD12
:100EB800C0E700BFC10E000808B5806B0023C385DA
:100EC800C38400F039FD08BD90F83830012B11D0EB
:100ED8000268242380F83930D36823F00C0343F0E8
:100EE8000803D360202380F83930002380F8383095
:100EF800184670470220704790F83830012B11D0FF
:100F08000268242380F83930D36823F00C0343F0B7
:100F18000403D360202380F83930002380F8383068
:100F2800184670470220704790F8392090F83A0028
:100F3800104370478AB0002308287CD8DFE800F007
:100F48000513202D3A4754616E0001933B4B3C48F2
:100F58001A6B42F001021A631B6B03F00103019341
:100F6800019B0AB070470293344B36481A6B42F023
:100F780002021A631B6B03F002030293029BF0E761
:100F880003932E4B30481A6B42F004021A631B6B12
:100F980003F004030393039BE3E70493274B2B48D5
:100FA8001A6B42F008021A631B6B03F008030493E0
:100FB800049BD6E70593214B25481A6B42F0100293
:100FC8001A631B6B03F010030593059BC9E706938F
:100FD8001A4B20481A6B42F020021A631B6B03F06D
:100FE80020030693069BBCE70793144B1A481A6B19
:100FF80042F040021A631B6B03F040030793079B00
:10100800AFE708930D4B15481A6B42F080021A633C
:101018001B6B03F080030893089BA2E70993074B17
:101028000F481A6B42F480721A631B6B03F48073C7
:101038000993099B95E7002093E700BF0038024019
:10104800000002400004024000080240000C024078
:10105800001002400014024000180240001C024028
:1010680000200240FFF762B9704708B5FFF752F950
:10107800FFF7EFF9FFF7F8FF08BD00000B4BDA6840
:10108800D2015EBFDA6842F08072DA60084B002253
:101098005A601A6842F001021A6000BF00BF00BF20
:1010A8005868B0FA80F04009704700BFF0ED00E0E2
:1010B800001000E008B5FFF7E1FFFFF711F9BDE800
:1010C800084000F0BBBD30B5436891FAA1F4B4FA0A
:1010D80084F50124AC4023EA040391FAA1F1B1FAA2
:1010E80081F18A401343436030BD30B5C46891FA3A
:1010F800A1F3B3FA83F303255B0005FA03F324EAAB
:10110800030391FAA1F1B1FA81F149008A4013432E
:10111800C36030BD431C04D00C3131F90C3C5A1C5F
:1011280001D100207047834201F10C01F5D1012063
:101138007047000000F00F02484B2DE9F041C0F362
:1011480003141FFA80F8013053F822500E4601F0BC
:10115800070703D14248482100F0CCF82046FFF7A2
:10116800E9FE8368044695FAA5F2B2FA82F20321F1
:10117800520001FA02F223EA020195FAA5F3B3FA42
:1011880083F35A00032393400B438360032F35D81E
:10119800DFE807F01D1D021D18F0080FC6F3062230
:1011A80017D0406A2B0A93FAA3F1B1FA81F14FF0F4
:1011B8000F0C89000CFA01F120EA010193FAA3F35C
:1011C800B3FA83F39B0002FA03F30B4363623B46D3
:1011D80019E0036A95FAA5F1B1FA81F10F208900A7
:1011E80000FA01F123EA010195FAA5F3B3FA83F3B2
:1011F8009B0002FA03F30B432362E8E718488D21AA
:1012080000F078F80023216895FAA5F2B2FA82F284
:101218000320520000FA02F221EA020195FAA5F22F
:10122800B2FA82F252009340013F0B43012F236030
:1012380007D816F0080218BF012229462046FFF7F2
:1012480042FFC6F30112012A02D0022A18BF002267
:1012580029462046BDE8F041FFF747BF7C2A000831
:10126800182A0008B1F900305A1C01D10020704733
:10127800834201D1486870470C31F3E7431C01D021
:10128800FFF7F0BF002070474B6813B94FF0FF30ED
:101298007047834202D1B1F9000070470C31F3E77F
:1012A80008B1FFF7F1BF4FF0FF307047B1F90030D8
:1012B8005A1C01D118467047834201D1886870478B
:1012C8000C31F3E7431C01D0FFF7F0BF7047000073
:1012D800034B1B6813B1034A10681847704700BFD7
:1012E800B4000020D80000200148FFF761BB00BF10
:1012F800B8000020FEE700000F49D1F8883043F419
:101308007003C1F888300D4B1A68002042F00102C2
:101318001A6098601A6822F0847222F480321A6087
:10132800074A5A601A6822F480221A60D8604FF07F
:1013380000638B60704700BF00ED00E0003802409A
:10134800103000240438704703686D4A93428EB009
:101358002AD1002200926B4A516C41F0010151647C
:10136800526C02F001020092009A674A93425DD1E2
:1013780000220592634A116C41F010011164126C4D
:1013880002F010020592059A604A93425DD100234B
:101398000A935C4B5A6C42F480225A645B6C03F4E7
:1013A80080230A930A9B26E0B3F1804F25D0584A40
:1013B80093422FD0574A934257D0574A9342D4D199
:1013C800002204924F4A116C41F008011164126C1A
:1013D80002F008020492049A504A9342D4D100239E
:1013E8000993484B5A6C42F400325A645B6C03F41C
:1013F80000330993099B0EB0704700220192414ABD
:10140800116C41F001011164126C02F001020192A9
:10141800019AAAE7002202923A4A116C41F00201AD
:101428001164126C02F002020292029A3C4A934240
:1014380027D100220692334A116C41F02001116431
:10144800126C02F020020692069A364A934246D15E
:1014580000230B932B4B1A6C42F040021A641B6C4E
:1014680003F040030B930B9BC5E700220392254A28
:10147800116C41F004011164126C02F00402039231
:10148800039A294A93421ED0284A9342A4D10022A3
:1014980008921C4A516C41F480315164526C02F438
:1014A80080320892089A224A9342A4D100230D93CD
:1014B800144B1A6C42F480721A641B6C03F4807328
:1014C8000D930D9B97E7002207920E4A516C41F04D
:1014D80002015164526C02F002020792079A154AFF
:1014E8009342E0D100230C93064B1A6C42F0800221
:1014F8001A641B6C03F080030C930C9B7BE700BF02
:10150800000001400038024000100040004801403F
:101518000004004000080040000C00400044014066
:101528000014004000180040000401400040014041
:1015380000200040001C004003683A4A934214D13E
:1015480039494A6C22F001024A64384A934231D13F
:1015580035490A6C22F010020A64354A934231D1A7
:10156800314A536C23F4802317E0B3F1804F16D02F
:10157800304A934219D0304A93422CD02F4A934292
:10158800E3D129490A6C22F008020A642C4A9342E2
:10159800E3D1254A536C23F400335364704722493E
:1015A8000A6C22F001020A64CFE71F490A6C22F094
:1015B80002020A64234A934212D11B490A6C22F0A0
:1015C80020020A64204A93421ED1174A136C23F062
:1015D80040031364704714490A6C22F004020A6439
:1015E8001A4A93420BD01A4A9342CFD10E494A6CF9
:1015F80022F480324A64174A93420DD070470A4950
:101608004A6C22F002024A64134A9342F3D1064A12
:10161800136C23F08003DCE7034A136C23F4807314
:10162800D7E700BF0000014000380240001000402A
:10163800004801400004004000080040000C004041
:10164800004401400014004000180040000401401C
:101658000040014000200040001C004008B5431C29
:10166800014616D0294B98423ED01ED8A3F54063B8
:1016780098423BD010D8A3F50063984238D003F5C0
:101688008063984236D0B0F1804F35D02048FFF7BC
:1016980031FE6FF00D0008BD1E4B98422ED003F5A9
:1016A80080639842F2D13720F5E71B4B98420CD063
:1016B8000DD8A3F56443984222D003F560439842BD
:1016C80020D0A3F564439842E0D12C20E3E7134BE4
:1016D800984217D003F58063984215D0A3F50063AC
:1016E8009842D3D11820D6E72B20D4E73220D2E76E
:1016F8001D20D0E71E20CEE71C20CCE73620CAE705
:101708002D20C8E71920C6E71A20C4E700180040B2
:10171800CC2A0008001000400004014000440140A9
:1017280008B5431C014616D02B4B98423ED022D810
:10173800A3F5805398423BD010D8A3F50063984294
:1017480038D003F58063984236D0B0F1804F35D059
:101758002248FFF7CFFD6FF00D0008BD204B9842DF
:101768002ED003F5806398422CD0A3F500639842ED
:10177800EED13620F1E71B4B984225D00DD8A3F5C2
:101788008043984222D003F58063984220D0A3F585
:1017980064439842DCD12D20DFE7134B984219D0DF
:1017A80003F580639842D3D11A20D6E72C20D4E7DA
:1017B8003220D2E71D20D0E71E20CEE71C20CCE740
:1017C8003720CAE72B20C8E71820C6E71B20C4E744
:1017D8002E20C2E71920C0E7001C0040CC2A0008D0
:1017E80000140040004001400044014038B5044660
:1017F800FFF7AAFD0068FFF731FFD4E91012FEF7E2
:10180800ADFD2068FFF72AFFFEF7DAFD2068FFF735
:1018180087FF05462068FFF721FF85420DD0206825
:10182800FFF77EFFD4E91012FEF798FD2068FFF756
:1018380077FFBDE83840FEF7C3BD38BD08B5074B94
:1018480090F8512053F82200FFF76EFB00F02200B9
:10185800A0F122035842584108BD00BFDC00002017
:1018680008B5074B90F8512053F82200FFF75CFBAE
:1018780000F02100A0F121035842584108BD00BFE3
:10188800DC00002010B50446E8B1816490F95000EE
:10189800FEF7A4FDA36DB4F8621094F8510013FA92
:1018A80081F1094B012253F82000FFF7E0F994F980
:1018B800500000220121FEF751FD94F95000BDE8C7
:1018C8001040FEF77DBD10BDDC00002050B1B0F91E
:1018D8004E30013306D190F85120034B53F82200C3
:1018E800FFF7F2BA704700BFDC00002050B1B0F932
:1018F8004E30013306D190F85120034B53F82200A3
:10190800FFF7FABA704700BFDC000020036C043808
:10191800184710B5436C04460438984701300AD07C
:10192800B4F85E10636D20460122BDE8104013FA3A
:1019380081F1FFF79CB910BD1FB50368044618680C
:1019480010F0010013D0002200921A6800925B6820
:101958000093009B201FFFF771FF40BB012204F199
:101968004E01204604B0BDE81040FFF79FB9196842
:1019780011F0020106D001901A6801925B68019388
:10198800019BE7E71A6812F0040206D002911A6870
:1019980002925B680293029BDCE719680907D9D5B4
:1019A80003921A6803925B680393039BD2E704B01F
:1019B80010BD000008B52520FEF73AFD024B186857
:1019C800BDE80840FFF7D4B9DC00002008B52620A0
:1019D800FEF72EFD024B5868BDE80840FFF7C8B96E
:1019E800DC00002008B52720FEF722FD034B98688D
:1019F80018B1BDE80840FFF7BBB908BDDC000020FE
:101A080008B53420FEF714FD024BD868BDE808403D
:101A1800FFF7AEB9DC00002008B53520FEF708FD59
:101A2800024B1869BDE80840FFF7A2B9DC000020A6
:101A380008B54720FEF7FCFC024B5869BDE8084092
:101A4800FFF796B9DC0000200268094B9A420DD1D5
:101A580003F5E2331A6A42F000521A621A6A22F057
:101A680000521A621A6C22F000521A64704700BFC2
:101A78000074004010B50C4986B00446FFF7FEFB21
:101A8800019078B108492046FFF71CFCC0F3C43028
:101A980002280CBF1021002101A8FEF7ECFC01A8C8
:101AA800FEF7DBFC06B010BDE42A000873B5154943
:101AB800154C0646FFF7E2FB00F0DEF954F820303B
:101AC800054673B90F493046FFF7D8FB0190A820A7
:101AD80000F092FB0199064600F04EFA54F82530C2
:101AE8001E6054F825301C684CB1204600F024FADA
:101AF800A821204602B0BDE8704000F07FBB02B0CC
:101B080070BD00BF082B000834020020836810B5A0
:101B1800044613B1032201469847204610BD000031
:101B28000023012803F1010202D040081346F8E718
:101B38001421DBB24B43044A181D1044816811B1CB
:101B48001A44136918477047F40000200120FEF773
:101B5800B1BC0220FEF7AEBC0420FEF7ABBC0820E7
:101B6800FEF7A8BC1020FEF7A5BC38B50524202533
:101B7800A8B2FEF79FFC013C4FEA4505F8D138BDF5
:101B880038B506244FF48065A8B2FEF793FC013CF3
:101B98004FEA4505F8D138BD204B072119750821B2
:101BA80083F82810092183F83C100A21062283F8BB
:101BB800501017211A7083F86410002283F87810E7
:101BC80083F88C1083F8A01083F8B4102821DA6009
:101BD8001A625A639A64DA651A67C3F88420C3F8EC
:101BE8009820C3F8AC20C3F8C02083F8C810C3F805
:101BF800D42083F8DC10C3F8E82083F8F010C3F889
:101C0800FC2083F80411C3F8102183F81811C3F8D5
:101C1800242183F82C11C3F838217047F4000020E0
:101C280038B5054CA4F5A075143C201DFFF76EFFD0
:101C3800AC42F9D138BD00BF3402002010B594B0D1
:101C4800294B002100911A6C42F080521A641B6CD7
:101C580003F080530093009B244B01911A6842F4CF
:101C680080421A601B6803F480430193019B0121A1
:101C78004FF480334FF48002CDE908130223CDE9F5
:101C88000E3208204FF4A872CDE91002129308A86A
:101C980007231393FEF71AFC18B11548D221FFF752
:101CA80029FB02230F22CDE9032300244FF4A0537C
:101CB800CDE9054305214FF4805303A80793FEF7A8
:101CC800DBFD18B10A48DF21FFF714FB064B02942D
:101CD8001A6B42F480121A631B6B03F4801302938D
:101CE800029B14B010BD00BF0038024000700040D5
:101CF800082E0008DFF834D0002103E00C4B5B58B5
:101D0800435004310B480C4B42189A42F6D30B4A05
:101D180002E0002342F8043B094B9A42F9D3FFF74B
:101D2800EBFA00F0BDFB00F05DFA704700000220FE
:101D38005C30000800000020980000209800002077
:101D4800AC030020FEE700004A282DE9F0410E46CA
:101D580047D8254B33F91040621C42D0234DC4F3B9
:101D6800031704F00F0855F8273023FA08F3DB07A8
:101D780010D51F492046FFF7CDF990B12046FFF74F
:101D880079FE012303FA08F255F8273023EA020303
:101D980045F82730052E1ED8DFE806F00D19131573
:101DA800171B14492046FFF7B5F90028E9D020464B
:101DB800FFF77CFEE5E700212046BDE8F041FFF78C
:101DC800B9B91021F8E72021F6E70321F4E701214A
:101DD800F2E70921F0E7BDE8F04107484921FFF79C
:101DE80089BABDE8F08100BF662E00086C020020A9
:101DF800E42A0008082B0008FC2E00084A289ABF8D
:101E08000C4B33F910304FF0FF33C3F30312082A99
:101E180098BF094803F00F0398BF50F822200748DD
:101E280088BF002250F8233009B1936170471B0422
:101E3800FBE700BF662E00080C0000207C2A000883
:101E4800FFF710B938B5044648B1FFF70BF9054656
:101E580000F0D8F9FFF706F9431BA342F8D338BDC1
:101E6800836810B504462BB1032201469847002326
:101E7800C4E90233204610BD264A904203462ED0BC
:101E8800B0F1804F2DD0A2F57C4290422BD002F5C4
:101E98008062904229D002F58062904227D04FF6A6
:101EA800FF701D4A934224D01C4A934223D01C4AF7
:101EB800934222D002F57052934220D0194A93429D
:101EC8001FD0194A93421ED0184A93421DD0184A6F
:101ED80093421CD0174A934208BF0D207047002038
:101EE800DFE70120DDE70220DEE70320DFE704204B
:101EF800E4E70520E5E70620E6E70720E7E708200E
:101F0800E8E7092070470A2070470B2070470C202B
:101F1800704700BF0000014000100040001400405E
:101F280000040140004401400048014000180040FE
:101F3800001C004000200040014670B5044651F8DE
:101F4800100FFFF799FF05460846FFF7F5FA094A0B
:101F5800002342F8253004F15806E36004F1A8058F
:101F6800B54204D0103D2846FFF7D0FDF8E72046DB
:101F780070BD00BF34020020F8B500230366036774
:101F8800C0F88030C0F89030C0F8A0300446084649
:101F98000D46FFF771FF4FF6FF739842064603D1CF
:101FA8001E482F21FFF7A6F91D4A256104F10C03ED
:101FB80042F8263000230E2204F11006C4E90C333F
:101FC800C4E90E33C4E91033C4E9142384F82C306F
:101FD800A36484F84C3084F84D30E4603046FFF751
:101FE800B3F904F1580504F1A80728461035FFF79E
:101FF80037FFBD42F9D100234FF6FF72C4E9003321
:10200800C4E90632C4E90833A36063618023A3628C
:102018003046FEF703FE2046F8BD00BF572F0008E4
:102028003402002010B5074C206810B10430FEF7C8
:10203800ECFC606A20B1BDE810400430FEF7E5BC56
:1020480010BD00BF34020020034B186810B10430E3
:10205800FEF7DBBC704700BF34020020034B586812
:1020680010B10430FEF7D1BC704700BF3402002025
:10207800034B986810B10430FEF7C7BC704700BF27
:1020880034020020034BD86810B10430FEF7BDBC01
:10209800704700BF34020020034B186910B10430A8
:1020A800FEF7B3BC704700BF34020020034B5869E9
:1020B80010B10430FEF7A9BC704700BF34020020FD
:1020C800034B986910B10430FEF79FBC704700BFFE
:1020D80034020020034BD86910B10430FEF795BCD8
:1020E800704700BF34020020FFF7F4BF034B186AA3
:1020F80010B10430FEF789BC704700BF34020020DD
:10210800034B986A10B10430FEF77FBC704700BFDC
:1021180034020020034BD86A10B10430FEF775BCB6
:10212800704700BF34020020034B586B10B10430D5
:10213800FEF76BBC704700BF34020020826810B500
:102148000AB900F00BFCBDE81040C368184700004E
:1021580010B5044620B9074840F22641FFF7CAF8EF
:102168002046FFF7EFF80068036E13B15830FFF709
:10217800E5FF10BD572F0008FFF7EABF38B5054641
:1021880020B9114840F23941FFF7B4F82B7F013BE1
:10219800072B11D8DFE803F01504101110101013E5
:1021A80002242846FFF7CEF824010068583420445A
:1021B80083680BB1FFF7C2FF38BD0324F1E704249D
:1021C800EFE70124EDE700BF572F0008FFF7D6BF60
:1021D800FFF7D4BF08B50320FEF7AEF8BDE8084006
:1021E80000F00EB808B5AFF30080FEF703F8FEF76D
:1021F8000CF800F009F8FAE700F076B900F07CB9BD
:10220800FEF758BF7047000008B5044B2BB10448CF
:1022180000F01AF808B1AFF3008008BD0000000014
:1022280090020020B0F86230013303F03F03A0F8B9
:102238006230B0F86230B0F85E009BB298424FF05E
:10224800FF3018BF00207047B0F8F430B0F8F00045
:10225800181A00F03F007047B0F8F430B0F8F020DA
:102268009BB293421ABFD0F8E830985C4FF0FF3029
:1022780070470000012370B50374B0F9E2300133F0
:1022880004460E4600F1940508D190F8F8302BB1B9
:10229800002380F8F8302846FFF718FBB4F8F2104E
:1022A8004B1C03F03F03B4F8F62092B29342FAD0E5
:1022B800D4F8EC2028465654A4F8F230FFF7D0FAA8
:1022C80018B903492846FFF7DDFA012070BD00BFA1
:1022D8002D220008037C33B1B0F8F220B0F8F630B4
:1022E8009BB29A42FAD1704700F11103914208BF9C
:1022F8004FF0FF31A0F8E020C0F8E83000F15102BB
:102308000023A0F8F430C0E93B23A0F8E210A0F8BD
:10231800F630704770B54FF47A7316460022C0E95C
:102328000123164B03604FF6FF73A0F8E230144BFD
:10233800984204460D4614D1124B9A8DA0F8E2201B
:10234800DB8DA0F8E030012E04BF4FF6FF73A4F830
:10235800E2302046B4F9E020B4F9E210FFF7C4FFF8
:1023680070BD09492846FEF79BFF0849A4F8E2001A
:102378002846FEF795FFA4F8E000E4E7BC2F000824
:1023880090020020662E0008002D0008842D000809
:10239800B0F9E230013310B504460ED103685B6929
:1023A800984794F8F83043B9012384F8F83004F1D9
:1023B8009400BDE81040FFF799BA10BD10B5044667
:1023C800FFF7E6FFB4F8F420B4F8F03092B29A427E
:1023D8001FBFD4F8E820D05C013303F03F0314BFDB
:1023E800A4F8F0304FF0FF3010BD00000249034858
:1023F8000022FFF78FBF00BF0010014090020020AD
:10240800F8B505460E4617460024BC4207D02B688F
:10241800315D1B682846984708B10134F5E7204626
:10242800F8BD10B50446FFF70BFDE06023682046B1
:10243800DB689847002808DAFFF702FDE368C01A4E
:10244800A3689842F2D34FF0FF3010BDF8B50646A6
:102458000D4617460024BC4207D03046FFF7E1FF7F
:10246800031E02DB2B550134F5E72046F8BD2DE9A4
:10247800F0410746884616461D4673B10024384683
:10248800FFF7CFFF031E05DB434503D03355013467
:10249800A542F4D12046BDE8F0811C46FAE70000C9
:1024A80070B50D4D0D4C641BA4100026A64209D131
:1024B8000B4D0C4C00F0A0FA641BA4100026A64299
:1024C80005D170BD55F8043B98470136EEE755F83D
:1024D800043B98470136F2E74430000844300008CE
:1024E8004430000854300008024B0146186800F0D8
:1024F8005BB800BF34000020024B0146186800F0AA
:1025080003B800BF3400002037B5002948D051F87F
:10251800043C0190002BA1F10404B8BFE41800F0BA
:10252800AFF8204A01981368154633B96360146000
:1025380003B0BDE8304000F0A9B8A3420BD9216828
:102548006218934204BF1A685B68636004BF52183C
:1025580022602C60ECE71A465B680BB1A342FAD9FB
:1025680011685518A5420BD1246821445418A34278
:102578001160DDD11C685B68536021441160D7E7A6
:1025880002D90C230360D3E7256861198B4204BF85
:1025980019685B68636004BF491921605460C7E724
:1025A80003B030BD90030020F8B5CD1C25F003051D
:1025B80008350C2D38BF0C25002D064601DBA94235
:1025C80003D90C2333600020F8BD00F059F82149E5
:1025D8000A6814469CB9204F3B6823B92146304607
:1025E80000F03CF838602946304600F037F8431CC4
:1025F80023D10C233360304600F048F8E3E7236822
:102608005B1B17D40B2B03D923601C44256004E003
:102618006368A2420CBF0B605360304600F036F886
:1026280004F10B00231D20F00700C21ACCD01B1A9E
:10263800A350C9E722466468CCE7C41C24F003040D
:10264800A042E3D0211A304600F008F80130DDD16D
:10265800CFE700BF900300209403002038B5064D53
:102668000023044608462B60FDF7EAFD431C02D10F
:102678002B6803B1236038BD9C0300207047704766
:102688000148FFF7FBBF00BFA40300200148FFF784
:10269800F6BF00BFA40300202DE9F047089D0446BB
:1026A8008C46002B40F083808A42174647D9B2FAFD
:1026B80082F242B1C2F1200024FA00F09140974022
:1026C80040EA010C94404FEA1748230CBCFBF8F68B
:1026D8001FFA87FE08FB16C143EA014306FB0EF109
:1026E800994209D9FB1806F1FF3080F01981994207
:1026F80040F21681023E3B445B1AA4B2B3FBF8F0E9
:1027080008FB103344EA034400FB0EFEA64509D932
:102718003C1900F1FF3380F00581A64540F20281A3
:1027280002383C4440EA0640A4EB0E0400261DB1E2
:10273800D4400023C5E900433146BDE8F08702B91B
:10274800FFDEB2FA82F2002A50D1CB1B4FEA174EB5
:102758001FFA87F80126B3FBFEFC210C0EFB1C3385
:1027680041EA034108FB0CF38B4207D979180CF1B5
:10277800FF3002D28B4200F2E9808446C91AA3B224
:10278800B1FBFEF00EFB101143EA014408FB00F810
:10279800A04507D93C1900F1FF3302D2A04500F249
:1027A800D9801846A4EB080440EA0C40BFE78B42E6
:1027B80009D9002D00F0B1800026C5E90001304696
:1027C8003146BDE8F087B3FA83F6002E4AD18B4232
:1027D80002D3824200F2B880841A61EB030101201F
:1027E8008C46002DA8D0C5E9004CA5E7C2F120030E
:1027F80020FA03F6974001FA02F04FEA174ED94043
:102808003043030CB1FBFEF61FFA87F80EFB1611D6
:1028180043EA014306FB08F1994204FA02F409D994
:10282800FB1806F1FF3C80F08D80994240F28A80C7
:10283800023E3B445B1A81B2B3FBFEF00EFB103341
:1028480041EA034100FB08F38B4207D9791800F1EC
:10285800FF3C73D28B4271D902383944CB1A40EA13
:10286800064678E7C6F1200C03FA06F422FA0CF3C0
:102878001C4320FA0CF701FA06F34FEA144E21FA2A
:102888000CF11F433B0CB1FBFEF91FFA84F80EFB59
:10289800191143EA014109FB08FA8A4502FA06F2CE
:1028A80000FA06F308D9611809F1FF3048D28A45C1
:1028B80046D9A9F102092144A1EB0A01BFB2B1FB33
:1028C800FEF00EFB101147EA014700FB08F8B84577
:1028D80007D9E71900F1FF312ED2B8452CD90238B3
:1028E800274440EA0940A7EB0807A0FB02894F45A7
:1028F800C64649461AD317D05DB1B3EB0E0267EB53
:10290800010707FA0CFCF2404CEA0202F740C5E95D
:10291800002700263146BDE8F0872E4628460BE7FB
:102928000646E9E61846FDE64345E5D2B8EB020E51
:1029380069EB04010138DFE70846D2E760468DE716
:102948008146B9E7664675E730464AE7ACF1020CBE
:10295800394413E702383C4424E700BF08B500F0C7
:1029680000F808B5062000F02BF80120FDF786FCDA
:102978001F2938B504460D4604D9162303604FF0C5
:10298800FF3038BD426C12B152F821304BB92046A5
:1029980000F030F82A4601462046BDE8384000F0ED
:1029A80017B8012B0AD0591C03D116230360012044
:1029B800E7E7002442F82540284698470020E0E74A
:1029C800024B01461868FFF7D3BF00BF3400002050
:1029D80038B5074D00230446084611462B60FDF71D
:1029E8004FFC431C02D12B6803B1236038BD00BFE4
:1029F8009C030020FDF74CBCF8B500BFF8BC08BC30
:102A08009E467047F8B500BFF8BC08BC9E467047A4
:102A18002F686F6D652F67726F6F77792F2E6172D0
:102A28006475696E6F31352F7061636B61676573AB
:102A38002F53544D33322F68617264776172652F5A
:102A480073746D33322F312E392E302F6C696272C8
:102A580061726965732F5372635772617070657222
:102A68002F7372632F73746D33322F70696E6D61BB
:102A7800702E630001000000020000000400000046
:102A880008000000100000002000000040000000C6
:102A980080000000000100000002000000040000A7
:102AA80000080000001000000020000000400000A6
:102AB8000080000000000000000000000102030484
:102AC8000607080954494D3A20556E6B6E6F776EAC
:102AD8002074696D6572204952516E00040000002F
:102AE80000740040038000000500000000740040EE
:102AF80003000100FFFF00000000000000000000CC
:102B080000000000000000401281000001000000E9
:102B18000000004012010100020000000000004017
:102B280012810100030000000000004012010200B1
:102B380005000000000000401281000006000000AF
:102B4800000400401282000007000000000400405A
:102B5800120201000800000000000140128100007C
:102B68000900000000000140120101000A000000F5
:102B780000000140128101000B000000000001402C
:102B8800120102001000000000040040128201003F
:102B980011000000000400401202020014000000AE
:102BA80000040040128200001500000000040040EC
:102BB8001202010016000000000800401282000006
:102BC8001700000000080040120201001800000071
:102BD8000044014012830000190000000048014031
:102BE800128300001A00000000000040128101005A
:102BF8001B00000000000040120102001D00000040
:102C080000000140128110001E0000000018004062
:102C1800128900001F00000000180040120901007E
:102C28002600000000040140128300002700000075
:102C380000040140120301002800000000040040C5
:102C48001282010029000000000401401203020062
:102C58003C00000000080040128200003D00000017
:102C680000080040120201003E0000000008004079
:102C7800128201003F00000000080040120202001A
:102C8800450000000040014012830000460000009B
:102C9800004001401203010048000000000001400C
:102CA800128110004900000000000140128100005C
:102CB8004A00000000000140120111004B00000012
:102CC80000000140120101004C000000000001401A
:102CD800128111004D000000000001401281010026
:102CE8004E0000000000014012010200FFFF00003A
:102CF800000000000000000001000000004C00403F
:102D08001208000003000000004400401207000001
:102D18000A00000000100140120700001700000020
:102D280000100140120700001B000000004800408E
:102D380012070000270000000014014012080000DC
:102D48002B0000000048004012070000320000007D
:102D58000050004012080000360000000044004007
:102D68001207000039000000004800401207000068
:102D7800FFFF00000000000000000000000000004D
:102D8800004C00401208000002000000004400400F
:102D9800120700000900000000100140120700009F
:102DA8001600000000100140120700001A00000081
:102DB80000480040120700002600000000140140EF
:102DC800120800002A000000004800401207000016
:102DD8002C000000005000401208000035000000E0
:102DE800004400401207000038000000004800407E
:102DF80012070000FFFF00000000000000000000B4
:102E08002F686F6D652F67726F6F77792F2E6172DC
:102E18006475696E6F31352F7061636B61676573B7
:102E28002F53544D33322F68617264776172652F66
:102E380073746D33322F312E392E302F76617269CB
:102E4800616E74732F424C41434B5F4634303758A0
:102E5800582F76617269616E742E6370700041003C
:102E6800400019001800170016001500130037005D
:102E780036003500340033003200310030002C00B9
:102E88002B002A000F000C000B000A0009000800A4
:102E980029002800270026003F003E003D003C0096
:102EA8003B003A00390038001F004200430044004C
:102EB800450046002D0020002100220023000000CC
:102EC8000100020003000400050024002500100092
:102ED8001100060007004700480049004A004B005F
:102EE8004C004D004E004F001A001B001C001D0036
:102EF8001E0014002F686F6D652F67726F6F7779EA
:102F08002F2E61726475696E6F31352F7061636B36
:102F1800616765732F53544D33322F68617264773C
:102F28006172652F73746D33322F312E392E302F25
:102F3800636F7265732F61726475696E6F2F77693D
:102F480072696E675F6469676974616C2E63002FCC
:102F5800686F6D652F67726F6F77792F2E61726456
:102F680075696E6F31352F7061636B616765732F9B
:102F780053544D33322F68617264776172652F73D1
:102F8800746D33322F312E392E302F636F72657383
:102F98002F61726475696E6F2F4861726477617210
:102FA8006554696D65722E63707000000000000042
:102FB800000000007D2200080924000851220008B2
:102FC800C523000861220008DD22000855240008F6
:102FD8007724000800000000000000000000000046
:102FE80000000000000000000000000000000000D9
:102FF80000000000000000000000000000000000C9
:1030080000000000000000000000000000000000B8
:1030180000000000000000000000000000000000A8
:103028000000000000000000000000000000000098
:043038000000000094
:08303C0064F6FF7F01000000B3
:10304400DD210008E1010008A11B0008F5230008A8
:08305400BD010008291C000861
:10305C00AC03002001000000100000000000024042
:10306C000004024000080240000C02400010024024
:10307C000014024000180240001C024000200240D4
:10308C000024F4003800002000000000FC2F000891
:10309C001C300008DC2F00080000000000000000BD
:1030AC000000000000000000000000000000000014
:1030BC000000000000000000000000000000000004
:1030CC0000000000000000000000000000000000F4
:1030DC0000000000000000000000000000000000E4
:0830EC000000000000000000DC
:0400000508001CFDD6
:00000001FF
